:10000000F7C9189518951895189518951895189575
:1000100018951CC78BC2B2C2189518956FC7189552
:100020001895189523C9189598C918951895189575
:10003000189518954361707374616E2056312E3097
:100040003000005EBCE2613FDD83C29C7E20A3FDE8
:100050001F419DC3217FFCA2401E5F01E3BD3E60A6
:1000600082DC237D9FC1421CFEA0E1BF5D0380DED8
:100070003C62BEE0025CDF81633D7C22C09E1D438A
:10008000A1FF4618FAA427799BC584DA3866E5BB38
:100090005907DB856739BAE406581947A5FB782666
:1000A000C49A653BD987045AB8E6A7F91B45C69898
:1000B0007A24F8A6441A99C7257B3A6486D85B054A
:1000C000E7B98CD2306EEDB3510F4E10F2AC2F71F8
:1000D00093CD114FADF3702ECC92D38D6F31B2EC26
:1000E0000E50AFF1134DCE90722C6D33D18F0C5258
:1000F000B0EE326C8ED0530DEFB1F0AE4C1291CF0A
:100100002D73CA947628ABF517490856B4EA6937B7
:10011000D58B5709EBB536688AD495CB2977F4AAE5
:100120004816E9B7550B88D6346A2B7597C94A1417
:10013000F6A8742AC896154BA9F7B6E80A54D789C9
:100140006B3520004003F418250060030000BA93CB
:10015000AA93D80142D101E010E06CDA202F212BC4
:1001600031F065D4009360031093610305C000E093
:10017000009360030093610305E210E05BDA202F37
:10018000212B11F07BD102C000E010E01D960D93F1
:100190001C93549600E00C93929720E08D0149D077
:1001A0008D01ABD08D01A991B9910895BA93AA930D
:1001B000D8011D960D911C911E9728D200917A03AB
:1001C000002309F0A8958D012AD1A991B99108952C
:1001D000BA933A2F243048F5622F70E0022E112492
:1001E000000C111CF001E05CFC4F208031802416D3
:1001F0003506D8F0F001E05CFC4F00841184401516
:10020000510598F0F8012787660F771F660F771F53
:10021000E60FF71FD80151960C9112E0019FE00DF7
:10022000F11D428B538B01E001C000E0A32FB99177
:100230000895BA93AA93D80193960C910078022B53
:100240000C935397022F01700D9321FB00E000F9EE
:100250000C9312972695269523702C931F9704E0F4
:10026000209FFD01E00DF11D51960C91149712E0B5
:10027000019FE00DF11D228933890D911C91129689
:1002800055D30C915097002349F051960C915197FA
:10029000002311F420E003C021E001C022E01D96FC
:1002A0000D911C9183D3A991B9910895BA93AA9302
:1002B000D801A9011F962C911F978ADF0023B1F066
:1002C0001F960C911F9714E0019FFD01E00DF11D99
:1002D00051960C91149712E0019FE00DF11D2289B7
:1002E00033890D911C9122D301E001C000E0A99156
:1002F000B9910895F80103A108957A926A925A92E9
:100300004A92BA93AA939A938A9338015524A0E506
:10031000B3E0C801452C440C4D915C911197242DFC
:100320002B5F0091600310916103AED3FC01028B3F
:10033000138B4D915D910DE0400E242D00916003D3
:1003400010916103A1D3FC01048B158B5394049687
:1003500004E05016F8F2F301058516852DD3899136
:100360009991A991B991499059906990799008957E
:100370005A924A92BA93AA939A938A93D8014424A0
:10038000C801542C550CFC0142895389252D2B5F43
:10039000009160031091610391D3FC014489558958
:1003A0000DE0500E252D009160031091610386D35E
:1003B0004394049604E0401620F3FD01058516855C
:1003C0001AD3009160031091610395D3899199919B
:1003D000A991B9914990599008955B9A53985C9A64
:1003E00054985D9A5598219A229A2C9A24982D9A7D
:1003F0002598409A3898419A3998429A3A98439A5F
:100400003B98449A3C98459A3D98A8950091600085
:100410000861009360000DE0009360000895BA93B6
:10042000AA93D80100917A03002329F120E04D9985
:1004300021E04B9924604C99286092960C919297F8
:10044000021729F092962C9392970A2FF2DE1D96AE
:100450000D911C911E97ADD2002339F093960C910B
:1004600000680C93299A2A9A06C093960C910F77EC
:100470000C9329982A98A991B9910895BA93AA93AF
:10048000D801289A209801E010E0D4D8202F212B01
:1004900011F0C0D402C000E010E00D931C9311973E
:1004A00009E00093810002E206BB00916F00026246
:1004B00000936F002DE93FE18D0138D2E2E6F3E0D1
:1004C00010E01083118313961D931C9313961683CB
:1004D0001C93129617831C9319961D931C93539784
:1004E00012871187FD01178702E0068B01E004A344
:1004F000168F178F10A311A3128F138F148F158FC0
:1005000004E1D6D4F80192960D931C93939701E0E1
:1005100006830E2F2BD504E610E0CAD4FD01058713
:10052000168724D58D01A991B9910895FA93EA937C
:100530003A932A931A930A933FB7E2E6F3E00091C5
:100540008600109187000083118301850395018740
:1005500006810395068300850783012F23810217F7
:1005600028F4B19B03C00781039507833FBF09911E
:10057000199129913991E991F9911895FA93EA9392
:100580002A931A930A932FB7E2E6F3E000850395C6
:10059000008701850A950187002329F400811181D4
:1005A000048315830EC042F40091880010918900E5
:1005B000048315830FEF04C000E00483058301E08A
:1005C000018701E002872FBF099119912991E991D3
:1005D000F99118954FB7F894209162033091630315
:1005E000F8012583368320916803208720916903D1
:1005F00022874FBF08954FB7F8942091660330913A
:100600006703F801238734874FBF08957A926A926F
:100610005A924A92BA93AA939A938A932897C801B6
:10062000F80102A113A1A5D4002309F444C08C0150
:10063000D1DFFC0170840781272C201A4580568069
:10064000628491F1648975891185062D011B402F03
:1006500050E020E030E0609F8001749F100D211D6C
:10066000351F60E070E0040D151D261F361F438105
:100670005481041B150B2040304040E050E00883BB
:1006800019832A833B834C834D834E834F83022DF2
:1006900010E020E030E0A8E5B3E02CD7DE0166D71B
:1006A000FC01028B138B03C000E0028B038B43829F
:1006B00054827782618600916C03002309F446C05E
:1006C00000E000936C038C0196DFFC0143855485A8
:1006D00060E070E00FEF1FEF159F9001149F102D49
:1006E000210D361F059F100D211D361F049F002D63
:1006F000110D261F361FA489B5891197AD01A8D603
:10070000980120953095E82F2387348704A1002392
:1007100069F00689023029F08C0122D09801FC0191
:1007200002C020E030E000811181A8D3FC010585E2
:10073000168524852A522B3A18F018D400E004C0FC
:1007400018D4002319F001E0FC010787289689914D
:100750009991A991B991499059906990799008958A
:10076000DA92CA92AA929A928A927A926A925A9249
:100770004A92AA939A938A932297288339832801CD
:10078000F801C588DD24628C738C4301AA2488811A
:100790009981A0E0068D178D20A131A13A932A936B
:1007A0001A930A9347898C0120E030E00619170953
:1007B00020403040349F302D249F202D310D149F38
:1007C000102D210D3D1D049F002D110D2D1D3D1DD2
:1007D00045E036D64991599169917991401B510B69
:1007E000620B730B7A936A935A934A93408D60E03D
:1007F00070E00FEF1FE720E030E00C801D80001953
:10080000110920403040349F302D249F202D310D80
:10081000149F102D210D361F049F002D110D261F32
:10082000361F40E03C9D302D2C9D202D310D1C9D10
:10083000102D210D341F0C9D002D110D241F341F70
:1008400051E029D64991599169917991400F511FF1
:10085000621F731F7A936A935A934A93F201018D30
:10086000880C991CAA1C88199909AA09AC016A2F3D
:10087000048C158C400D511D6D1D609F602D509F87
:10088000502D610D409F510D6D1D6695752F77950B
:10089000602D679550E0579500E0152F9B01A6014C
:1008A00060E070E0F8D5A801B9010991199129918A
:1008B0003991041B150B260B370B2AF400E010E0CE
:1008C00020E030E00BC001304EEF14072E0741E06E
:1008D000340720F000E01EEF2FEF31E0F201068F29
:1008E000178F20A331A3648E758E48815981428F62
:1008F000538F40E052E060E070E0CDD522968991C0
:100900009991A9914990599069907990899099907D
:10091000A990C990D9900895F801478B508F618FA5
:100920000895F8010789108D218D0895BA93AA932F
:100930009A938A93D801C90121300AEF900718F0E1
:1009400080E09AEF06C0243C09E0900710F484ECA4
:1009500099E0AC0160E070E000E018E629E839E0D9
:1009600077D5FD01048B158B808B918B04891589BC
:100970001695079500936403109365038489958900
:100980000197909389008093880089919991A9910A
:10099000B9910895F801008911890895F801028933
:1009A00013890895F801038514850895F801268BAD
:1009B0000895F80107850895BA93AA93D80134E100
:1009C00022E0009160031091610346D057960D9389
:1009D00034E123E000916003109161033DD00D9359
:1009E00032E324E0009160031091610335D00C9351
:1009F000A991B9910895BA93AA93D80157963D91B8
:100A000022E0009160031091610332D03D9123E018
:100A100000916003109161032BD03C9124E0009180
:100A200060031091610324D0A991B9910895BA93FC
:100A3000AA93D80101E00C9340E050E020E00A2F97
:100A400023D00A3D1E4B11F401E001C000E00C93DD
:100A50008D01A991B9910895F8010081002331F029
:100A600030E040E050E0420F531FD9C4032F0895F7
:100A700010E040E050E0420F511FD1D4031719F0AD
:100A8000032FD9D4A89508952297F8010081002357
:100A900079F030E040E050E0420F531FC0D40883AB
:100AA000239540E050E0420F531FB9D4098302C0A0
:100AB0004883598308811981229608952297488393
:100AC0005983188130E040E050E0420F531FA7D413
:100AD000011719F0012FAFD4A8951981239540E093
:100AE00050E0420F531F9BD4011719F0012FA3D4DC
:100AF000A89522960895BA93AA93D8014AED5EEB81
:100B000020E0DCDF40E050E020E08D01BDDF0A3D69
:100B10001E4B11F401E001C000E00C93A991B991C2
:100B2000089520E0F80120830895BA93AA93D1D1C3
:100B300004E210E07FD5ADE6B3E0202F212B21F0B9
:100B400006DB0D931C9303C000E00D930C931197EB
:100B500002E010E06FD5202F212B29F012D0129641
:100B60000D931C9304C000E012960D930C93139701
:100B7000DDD10D911D911ADB0D911C9113970FD0B2
:100B8000F7CFBA93AA93D80120E104E310E039D358
:100B90000D931C9311978D01A991B99108959A9283
:100BA0008A926A925A924A92BA93AA939A938A9391
:100BB000D8010D911C9111972FD2802F002309F499
:100BC0001FC10A95E9F00A95E9F00A9581F10350F1
:100BD00009F440C00A9509F448C00A9509F453C0C5
:100BE0000A9509F460C00A9509F4A0C00A9509F4B1
:100BF000C6C00A9509F4E9C00A9509F4ECC0F7C02B
:100C000021E0F6C00D911C91119751D2002309F4F7
:100C1000F3C0902F0D911C9111974CD2202F0D9164
:100C20001C91119760D29A9509F4E6C0F3CF04E3C2
:100C3000402E00E0502EF20124910D911C9111974D
:100C400052D201E0400E00E0501EF2010491002358
:100C500091F7D2C00D911C9111972CD2202F0091A9
:100C60006D0310916E03E5DAC0C00D911C911197D0
:100C70002AD2980100916D0310916E0317DB0023B7
:100C800009F4B5C0B2C00D911C9111971CD2980106
:100C9000E0916D03F0916E030585F685E02F0081EC
:100CA0001181ECD0A2C020E00D911C9111971BD2B4
:100CB00000916D0310916E031DDB202F0D911C918F
:100CC000119711D2E0916D03F0916E0305851685A1
:100CD00065DE98010D911C9111971CD2E0916D0376
:100CE000F0916E030585168555DE98010D911C91D6
:100CF000119710D2E0916D03F0916E030585168572
:100D000051DE98010D911C91119704D2E0916D0371
:100D1000F0916E030585F685E02F00811181C1D029
:100D200098010D911C911197F5D166C00D911C9100
:100D30001197C0D1002311F021E001C020E0E09123
:100D40006D03F0916E030585F685E02F24A30D91C8
:100D50001C911197AFD1802E0D911C911197AAD1A2
:100D6000902E0D911C911197A5D1A401602FE091B7
:100D70006D03F0916E0305851685CEDD36C020E04B
:100D80000D911C911197AFD1E0916D03F0916E031D
:100D90000585F685E02F24A10D911C911197A3D113
:100DA000E0916D03F0916E0305851685BADD512E35
:100DB000622E202F0D911C91119795D1252D0D910B
:100DC0001C91119790D1262D13C000916D031091A5
:100DD0006E03CEDA0AC00091600310916103A1DEB8
:100DE00000916D0310916E0388DA20E001C024E0C9
:100DF0000D911C91119777D1282F0D911C91ECD258
:100E000089919991A991B991499059906990899046
:100E1000999008959A938A93C8012B98239A20E079
:100E200030E02CD0009172030093B30003EC0093E8
:100E3000B00001E00093B10007BB009170000160B9
:100E4000009370008C018991999108952A931A93C7
:100E50000A932FB70091710310917403100F109330
:100E6000740318F40091730302C00091720300939D
:100E7000B3002FBF099119912991189521300FEFD7
:100E8000300710F020E03FEFE1E7F3E0022F0C7FA6
:100E90000083232F032F0095018323952095228320
:100EA0000895009172030095102F00917103089529
:100EB0009A938A93C80108E010E0BCD3202F212B1D
:100EC00019F09C0141D002C000E010E08991999195
:100ED000089502E004BD03E005BD09EF07BD02E08F
:100EE00005BB00936E00E5E7F3E001E0048300E05A
:100EF0000083018302830383789408957894FA939E
:100F0000EA932A931A930A932FB7E5E7F3E0008157
:100F100011810F5F1F4F0083118301E004832FBFF6
:100F2000099119912991E991F99118952FB7F894A0
:100F3000E5E7F3E0008111810283138304810583D7
:100F400000E004832FBF0895F8012083318320E05F
:100F500026832783258302C0258320E024832091D4
:100F600077033091780322833383089521E0F801D9
:100F7000F3CFF801278140917703509178030281E4
:100F80001381BA01601B710B008111816017710719
:100F900078F011E0222321F00481002309F010E011
:100FA00001E004830681002321F04283538306C0BD
:100FB00010E0222319F40681002319F0112331F0E7
:100FC00003C00481002311F00581089500E0089515
:100FD000BA93AA939A938A93D80153962C931B970A
:100FE000822F90E004968C0124D30D931C931896C5
:100FF0008C011FD30D931C93529700E00C9306E0D5
:101000001A960C93199700E00C9311978D01899112
:101010009991A991B99108951D0140E0F8012181AC
:10102000263009F041C025814085241B23502783A9
:1010300042E82085318523833483F901508155238B
:1010400091F4F8016381732F6F5F7F4F6383748323
:101050000AC0D0016D91A383B4834627E42FF0E04A
:10106000EE5BFF4F4491F801658176810380148027
:101070006015710570F72F5F3F4F2383348344233E
:1010800021F4A381B32F4C9101C041E020E0208BDB
:10109000208531852D5F3F4F238334832189328919
:1010A0002D5F3F4F24873587042FD1010895F80124
:1010B000078108959D01F801A381B4810D91A38357
:1010C000B483D90108953B2F4A2FF801A381B4813D
:1010D0002D91A383B483A3811D91A383B483022F95
:1010E000A42FB32F08953B2F2A2EF80104841584D2
:1010F00041895289638970E0460F571F4D5F5F4FEA
:101100000416150620F4D0012D93A487B587A22DCF
:10111000B32F08950D01F801648575850189128941
:10112000438950E0040F151F0E5F1F4F60177107B2
:1011300048F4DB012C9311968D010F5F1F4F04873C
:1011400015873C93D0010895BA93AA93382E022EA6
:10115000F801248535852687378721883289622DD5
:1011600022192350208B732F6F5F7F4F6487758701
:1011700080818068E22DF32F8083262FFB0100827F
:10118000F8016089E22FF72F618362E8F801218975
:101190003289248735872081222381F424852F5F9B
:1011A0003F4F248735870AC0D9012D91A487B58781
:1011B0006227E62FF0E0EE5BFF4F6491F801248593
:1011C0003585068417842015310570F3F901608395
:1011D000F80121893289248735872081222329F447
:1011E00024852F5F3F4F2487358720E02387218385
:1011F00024E0228700ECFA010083832DA991B991A4
:101200000895AA939A938A93C801A22F06E110E049
:1012100011D2202F212B21F04A2F9C0107D002C090
:1012200000E010E089919991A9910895BA93AA9349
:101230009A938A93D801C901242FCADEA0937B0315
:10124000B0937C03589A5098599A519A06E00093AB
:10125000C2009093C5008093C40008ED0093C100C4
:101260008D0189919991A991B9910895BA93AA9301
:10127000FA93EA936A935A934A933A932A931A9366
:101280000A936FB70091C600E0917B03F0917C0355
:101290001181163009F454C0003C41F401E001838F
:1012A000008511850383148300E003C00B3D19F40E
:1012B00001E0028345C02281222349F00D3D11F453
:1012C0000BED03C00C3D61F500EC20E022831150D2
:1012D000F9F01A9571F11A9559F01A9589F523814B
:1012E0003481458156812417350729F516E022C03F
:1012F00014E011831389101708F4012F208531851C
:1013000010E0200F311F2D5F3F4F2583368313C020
:1013100012E0118307FB3EF40F771081011759F09B
:1013200000E001830DC010E0A381B4811D93A3836D
:10133000B48313E01183A381B4810D93A383B48399
:101340006FBF0991199129913991499159916991E9
:10135000E991F991A991B9911895BA93AA93FA9341
:10136000EA936A935A934A933A932A931A930A9365
:101370006FB7E0917B03F0917C030285043049F55F
:10138000A485B5850D91A487B587003C11F00B3D70
:10139000A1F41385112351F40BED11E0138724857B
:1013A0003585215030402487358707C0003C11F433
:1013B0000CED01C00DED10E01387268537854485BF
:1013C00055852417350710F415E012870093C600E1
:1013D00002C006E00287B4CF2197AE01B5DE0881D6
:1013E0000093C6002196089579C101E010E076C10E
:1013F0000FE30DBF03E00EBFC0E0D2E018D1002321
:1014000009F03FD192DB1BD0EFCFF999FECF0895C1
:101410004F5F5F4FFADF41BD52BDF89A0895FADF82
:1014200000B508954F5F5F4F41BD52BDF894FA9AE1
:10143000F99A0FBE08950FB6E8DF00BDF5CFD4CFFF
:101440004A952AF0000F111F221F331FF9CF08956C
:10145000002411241001E0E2EA9592F0001F111F10
:10146000221F331F001C111C221C331C04161506DE
:101470002606370688F3041A150A260A370AECCF1F
:10148000001F111F221F331FA001B10100951095ED
:10149000209530950895FF27772312F4F16014D03A
:1014A000332312F4F09508D0D3DFF69508F404D076
:1014B000F69508F409C0089530952095109501958A
:1014C0001F4F2F4F3F4F0895709560955095419550
:1014D0005F4F6F4F7F4F0895BA93AA939A938A9361
:1014E0000895BB81AA8199818881F0E0EC0FFD1FEE
:1014F000EF0108958A939A934A925A926A92AA9314
:10150000BA930024112410012001F00188E06D90AD
:1015100098E0662049F4762F652F542F432F322F01
:10152000212F102F002714C0669440F4000E111EC6
:10153000221E331E441E551EE61FF71F000F111FEB
:10154000221F331F441F551F661F771F9A9561F78F
:101550008A95E9F680019101A201BF01B991A99193
:1015600069905990499099918991089502D02DD010
:101570000EC04A928A939A93AA93BA938D914D90F2
:10158000ED91FD910D901D902D903C900895099145
:101590001991299139914991599169917991001F36
:1015A000111F221F331F441F551F661F771F0095F1
:1015B0001095209530954095509560957095B9910E
:1015C000A99199918991499008950F931F932F9311
:1015D0003F934F935F936F937F9300271127980159
:1015E000A801B801B7E0A8E09F91AA95DAF0991F89
:1015F000001F111F221F331F441F551F661F771F17
:10160000081714052E073F074005510562057305AD
:1016100060F3081B14092E0B3F0B400951096209A6
:101620007309E3CF9A93A8E0BA95EAF6089501E02A
:10163000089500C053DFC80101C014D08C0103D14C
:10164000202F212B69F4EDE7F3E02081318100E0C8
:101650002030300791F3E0917D03F32F0995EECF11
:10166000E2E041CFC2CE20E006D0E9F7089525910F
:1016700002D0E9F708952D9301501040202F212B1F
:10168000089582E491E0FC0105911491FC013296E9
:10169000A591B491FC01349625913491422F432BAE
:1016A00019F0F901E4DF01C0DEDF069611E08E34A7
:1016B000910748F30895EFE7F3E000811181012BD2
:1016C00019F000E010E0089500E012E000831183BB
:1016D00020E031E0F801208331830895FFCFFCDE64
:1016E000D801012B09F452C01297ED91FC9111978A
:1016F000349708F44BC001E813E0F80150D019F01A
:10170000A217B30728F4FD0122833383F80123C015
:10171000F90145D019F02A173B07D0F340815181D8
:101720009F01240F351FA217B30780F12A173B072B
:1017300041F42D913C91420F531F40835183DF01AF
:101740000CC02DD021F024D026173707F8F01296C0
:101750002D933C931397A283B383FD0120D0B1F066
:1017600017D06217730791F440E0F801408341837A
:10177000F901008111814D915C91400F511F5C93E3
:101780004E9302811381FD0102831383E4E0A9CE0D
:101790004D915C911197BD01640F751F08952281D1
:1017A0003381422F432B089597DEC80103C00E5F9B
:1017B0001F4F95DFE1E8F3E0A081B1810A2F0B2BE9
:1017C00059F4A3E8B3E02DD021F135D000F52ED0A7
:1017D000FACF31D0E0F42AD024D0D9F7E1E8F3E011
:1017E0000081F181E02F00811181A3E8B3E001C005
:1017F0001DD02D913C9111972017310751F0ED919B
:10180000F32F1197208131812817390788F38D0133
:1018100006C051DF202F212B51F600E010E0E4E05C
:1018200060CE0D911C911197012B0895FD01A081AF
:10183000B18112960895ED91F12F119700811181D8
:1018400008171907089548DEC801029608171907F6
:1018500058F4843000E0900710F484E090E08C01AC
:10186000A3DF202F212B19F400E010E03EC0F80187
:1018700020813181F901A081B1811497A817B9079E
:1018800030F422813381D8012D933C9316C0280F68
:10189000391FD8012D933C934281538127D04D931A
:1018A0005C9340815181481B590BD8012D91BC910B
:1018B000A22F4D935C9380839183D8012D913C910D
:1018C000232B59F013D02D913C91232B31F0D801CB
:1018D0000D911C910E5F1F4F02C000E010E0A1E8C7
:1018E000B3E00D931C9332968F0199CFD8012D91BF
:1018F000D9019FCF00FA00FA00FA00FAC409C4091E
:10190000C409C409E109C2139D1F8527006889091C
:0419100000000000D3
:00000001FF
:00000001FF
