:100000000C94FB0018951895189518951895189547
:100010001895189518951895189518951895189578
:100020001895189518951895189518951895189568
:100030001895189518951895189518950C94F80812
:100040001895189518951895189518951895189548
:10005000189518950C945109189518951895189598
:10006000189518950C940D0B189518950C94840BF5
:100070001895189518951895189518951895189518
:100080001895189518951895189518951895189508
:1000900018951895189518951895189518951895F8
:1000A000189518950C941F040C94470418951895EE
:1000B00018951895189518951895189518951895D8
:1000C00018951895189518951895189518951895C8
:1000D00018951895189518951895189518951895B8
:1000E000189518954361707374616E2056312E30E7
:1000F0003000005EBCE2613FDD83C29C7E20A3FD38
:100100001F419DC3217FFCA2401E5F01E3BD3E60F5
:1001100082DC237D9FC1421CFEA0E1BF5D0380DE27
:100120003C62BEE0025CDF81633D7C22C09E1D43D9
:10013000A1FF4618FAA427799BC584DA3866E5BB87
:100140005907DB856739BAE406581947A5FB7826B5
:10015000C49A653BD987045AB8E6A7F91B45C698E7
:100160007A24F8A6441A99C7257B3A6486D85B0599
:10017000E7B98CD2306EEDB3510F4E10F2AC2F7147
:1001800093CD114FADF3702ECC92D38D6F31B2EC75
:100190000E50AFF1134DCE90722C6D33D18F0C52A7
:1001A000B0EE326C8ED0530DEFB1F0AE4C1291CF59
:1001B0002D73CA947628ABF517490856B4EA693707
:1001C000D58B5709EBB536688AD495CB2977F4AA35
:1001D0004816E9B7550B88D6346A2B7597C94A1467
:1001E000F6A8742AC896154BA9F7B6E80A54D78919
:1001F0006B350C94480C0FE50DBF04E00EBFC0E05A
:10020000D3E00E94D20B002311F00E94050C0E9443
:1002100039070E94D00B0C94F900F999FECF08958C
:100220004F5F5F4FFADF41BD52BDF89A0895FADF84
:1002300000B508954F5F5F4F41BD52BDF894FA9AE3
:10024000F99A0FBE08950FB6E8DF00BDF5CF4A95C5
:100250002AF0000F111F221F331FF9CF0895002429
:1002600011241001E0E2EA9592F0001F111F221FF5
:10027000331F001C111C221C331C041615062606F5
:10028000370688F3041A150A260A370AECCF001F2E
:10029000111F221F331FA001B10100951095209559
:1002A00030950895FF27772312F4F16015D033239A
:1002B00012F4F09509D00E942F01F69508F404D0AD
:1002C000F69508F409C0089530952095109501958C
:1002D0001F4F2F4F3F4F0895709560955095419552
:1002E0005F4F6F4F7F4F0895BA93AA939A938A9363
:1002F0000895BB81AA8199818881F0E0EC0FFD1FF0
:10030000EF0108958A939A934A925A926A92AA9315
:10031000BA930024112410012001F00188E06D90AF
:1003200098E0662049F4762F652F542F432F322F03
:10033000212F102F002714C0669440F4000E111EC8
:10034000221E331E441E551EE61FF71F000F111FED
:10035000221F331F441F551F661F771F9A9561F791
:100360008A95E9F680019101A201BF01B991A99195
:1003700069905990499099918991089502D02DD012
:100380000EC04A928A939A93AA93BA938D914D90F4
:10039000ED91FD910D901D902D903C900895099147
:1003A0001991299139914991599169917991001F38
:1003B000111F221F331F441F551F661F771F0095F3
:1003C0001095209530954095509560957095B99110
:1003D000A99199918991499008950F931F932F9313
:1003E0003F934F935F936F937F930027112798015B
:1003F000A801B801B7E0A8E09F91AA95DAF0991F8B
:10040000001F111F221F331F441F551F661F771F18
:10041000081714052E073F074005510562057305AF
:1004200060F3081B14092E0B3F0B400951096209A8
:100430007309E3CF9A93A8E0BA95EAF60895BA93C0
:10044000AA93D8010E94760301E010E00E94D60B27
:10045000202F212B39F00E94B206009380041093C4
:10046000810405C000E0009380040093810405E24C
:1004700010E00E94D60B202F212B19F00E94B90307
:1004800002C000E010E015960D931C93549600E016
:100490000C935A9720E08D014BD08D01B0D08D0187
:1004A000A991B9910895BA93AA93D80115960D917F
:1004B0001C9116970E948F0400919A04002309F062
:1004C000A8958D010E948803A991B9910895BA93C6
:1004D0003A2F243048F5622F70E0022E1124000CD0
:1004E000111CF001E05AFB4F2080318024163506A4
:1004F000D8F0F001E05AFB4F0084118440155105FB
:1005000098F0F8012783660F771F660F771FE60FB5
:10051000F71FD80119960C9112E0019FE00DF11D13
:100520004287538701E001C000E0A32FB9910895ED
:10053000BA93AA93D8015B960C910078022B0C9386
:100540005397022F01700D9321FB00E000F90C93EB
:1005500012972695269523702C93179704E0209FD9
:10056000FD01E00DF11D19960C91149712E0019F09
:10057000E00DF11D228533850D911C9112960E948C
:100580002A060C911897002349F019960C91199797
:10059000002311F420E003C021E001C022E0159601
:1005A0000D911C910E946B06A991B9910895BA937F
:1005B000AA93D801A90117962C91179788DF0023D9
:1005C000B9F017960C91179714E0019FFD01E00D0B
:1005D000F11D19960C91149712E0019FE00DF11D89
:1005E000228533850D911C910E942A0601E001C0ED
:1005F00000E0A991B9910895F801038D08957A92C8
:100600006A925A924A92BA93AA939A938A93380119
:100610005524A0E7B4E0C801452C440C4D915C91F1
:100620001197242D2B5F00918004109181040E946A
:10063000E206FC01028713874D915D910DE0400EAB
:10064000242D00918004109181040E94E206FC0197
:10065000048715875394049604E05016E8F2F301DA
:10066000058116810E94710689919991A991B9918C
:10067000499059906990799008955A924A92BA9304
:10068000AA939A938A93D8014424C801542C550CF8
:10069000FC0142855385252D2B5F0091800410912C
:1006A00081040E94FE06FC01448555850DE0500E34
:1006B000252D00918004109181040E94FE06439430
:1006C000049604E0401610F3FD01058116810E9496
:1006D000930600918004109181040E941F07899164
:1006E0009991A991B9914990599008955B9A53981D
:1006F0005C9A54985D9A5598219A279AA8950091EA
:1007000060000861009360000DE0009360000895B0
:10071000BA93AA93D80100919A04002339F120E0FA
:100720004D9921E04B9924604C9928605A960C9180
:100730005A97021731F05A962C935A970A2F0E9413
:10074000980215960D911C9116970E946E06002333
:1007500039F05B960C9100680C93299A2F9A06C089
:100760005B960C910F770C9329982F98A991B991CA
:100770000895BA93AA93D80100910B0101600093E8
:100780000B0100910A010E7F00930A0101E010E0C5
:100790000E94D60B202F212B19F00E94DC0802C0EA
:1007A00000E010E00D931C93119709E00093A10065
:1007B00002E209BB009172000262009372002DE90F
:1007C0003FE18D0147D2E2E8F4E010E010831183AD
:1007D00013961D931C93139616831C9312961783DE
:1007E0001C9319961D931C93539712871187FD0133
:1007F000178702E0068B01E004A3168F178F10A362
:1008000011A3128F138F148F158F04E10E942A09F0
:10081000F80192960D931C93939701E006830E2F97
:100820000E94890904E610E00E942A09FD0105875B
:1008300016870E9489098D01A991B9910895FA93AB
:10084000EA933A932A931A930A933FB7E2E8F4E0C3
:100850000091A6001091A7000083118301850395E4
:10086000018706810395068300850783012F238175
:10087000021728F4C99B03C00781039507833FBF74
:100880000991199129913991E991F9911895FA9362
:10089000EA932A931A930A932FB7E2E8F4E00085CB
:1008A0000395008701850A950187002329F40081BB
:1008B0001181048315830EC042F40091A8001091A9
:1008C000A900048315830FEF04C000E004830583AF
:1008D00001E0018701E002872FBF09911991299159
:1008E000E991F99118954FB7F894209182043091CD
:1008F0008304F80125833683209188042087209182
:10090000890422874FBF08954FB7F8942091860439
:1009100030918704F801238734874FBF08957A9276
:100920006A925A924A92BA93AA939A938A93289770
:10093000C801F80102A113A10E948C09002309F447
:1009400046C08C01D0DFFC0170840781272C201A5F
:10095000458056806284A1F1648975891185062DD0
:10096000011B402F50E020E030E0609F8001749F29
:10097000100D211D351F60E070E0040D151D261FB0
:10098000361F43815481041B150B2040304040E04A
:1009900050E0088319832A833B834C834D834E8325
:1009A0004F83022D10E020E030E0A8E7B4E00E9481
:1009B0008201DE010E94BE01FC01028B138B03C089
:1009C00000E0028B038B4382548277826186009120
:1009D0008C04002309F44AC000E000938C048C01CD
:1009E00093DFFC014385548560E070E00FEF1FEF5B
:1009F000159F9001149F102D210D361F059F100D7E
:100A0000211D361F049F002D110D261F361FA4899E
:100A1000B5891197AD010E942F019801209530955D
:100A2000E82F2387348704A1002371F00689023060
:100A300029F08C0125D09801FC0102C020E030E0B3
:100A4000008111810E941009FC010585168524850D
:100A50002A522B3A20F00E94890900E005C00E942A
:100A60008C09002319F001E0FC0107872896899181
:100A70009991A991B9914990599069907990089567
:100A8000DA92CA92AA929A928A927A926A925A9226
:100A90004A92AA939A938A932297288339832801AA
:100AA000F801C588DD24628C738C4301AA248881F7
:100AB0009981A0E0068D178D20A131A13A932A9348
:100AC0001A930A9347898C0120E030E00619170930
:100AD00020403040349F302D249F202D310D149F15
:100AE000102D210D3D1D049F002D110D2D1D3D1DAF
:100AF00045E00E9427014991599169917991401BE4
:100B0000510B620B730B7A936A935A934A93408DFD
:100B100060E070E00FEF1FE720E030E00C801D8008
:100B20000019110920403040349F302D249F202D82
:100B3000310D149F102D210D361F049F002D110D16
:100B4000261F361F40E03C9D302D2C9D202D310D61
:100B50001C9D102D210D341F0C9D002D110D241FE7
:100B6000341F51E00E945201499159916991799144
:100B7000400F511F621F731F7A936A935A934A93CF
:100B8000F201018D880C991CAA1C88199909AA09DF
:100B9000AC016A2F048C158C400D511D6D1D609F9A
:100BA000602D509F502D610D409F510D6D1D66951C
:100BB000752F7795602D679550E0579500E0152FBC
:100BC0009B01A60160E070E00E945201A801B901FA
:100BD0000991199129913991041B150B260B370B9B
:100BE0002AF400E010E020E030E00BC001304EEFCE
:100BF00014072E0741E0340720F000E01EEF2FEF2E
:100C000031E0F201068F178F20A331A3648E758E19
:100C100048815981428F538F40E052E060E070E09C
:100C20000E945201229689919991A99149905990D7
:100C30006990799089909990A990C990D9900895D8
:100C4000F801478B508F618F0895F8010789108D47
:100C5000218D0895BA93AA939A938A93D801C901D2
:100C600021300AEF900718F080E09AEF06C0243C8C
:100C700009E0900710F484EC99E0AC0160E070E0CA
:100C800000E018E629E839E00E942F01FD01048BFD
:100C9000158B808B918B0489158916950795009388
:100CA0008404109385048489958901979093A90001
:100CB0008093A80089919991A991B9910895F8011B
:100CC000008911890895F801028913890895F801AE
:100CD000038514850895F801268B0895F80107858A
:100CE0000895BA93AA93D80134E122E000918004D8
:100CF000109181040E94C70657960D9334E123E0BA
:100D000000918004109181040E94C7060D9332E384
:100D100024E000918004109181040E94C7060C9386
:100D2000A991B9910895BA93AA93D80157963D9184
:100D300022E000918004109181040E94D4063D912C
:100D400023E000918004109181040E94D4063C911C
:100D500024E000918004109181040E94D406A9919E
:100D6000B9910895BA93AA93D80101E00C9340E099
:100D700050E020E00A2F26D00A3D1E4B11F401E07E
:100D800001C000E00C938D01A991B9910895F8017B
:100D90000081002339F030E040E050E0420F531F63
:100DA0000C941701032F089510E040E050E0420F2B
:100DB000511F0E941701031721F0032F0E942301E6
:100DC000A89508952297F8010081002389F030E06A
:100DD00040E050E0420F531F0E9417010883239503
:100DE00040E050E0420F531F0E941701098302C0E8
:100DF0004883598308811981229608952297488350
:100E00005983188130E040E050E0420F531F0E94A8
:100E10001701011721F0012F0E942301A8951981C4
:100E2000239540E050E0420F531F0E941701011725
:100E300021F0012F0E942301A89522960895BA93CC
:100E4000AA93D8014AED5EEB20E0D8DF40E050E005
:100E500020E08D01B7DF0A3D1E4B11F401E001C017
:100E600000E00C93A991B991089520E0F801208346
:100E70000895BA93AA930E943C090CE110E00E94E5
:100E8000D60BADE8B4E0202F212B29F00E941F02E1
:100E90000D931C9303C000E00D930C93119702E097
:100EA00010E00E94D60B202F212B31F00E946D07FD
:100EB00012960D931C9304C000E012960D930C93B0
:100EC00013970E9469090D911D910E9453020D9183
:100ED0001C9113970E947C07F4CFBA93AA93D80170
:100EE00020E104E310E00E94D60A0D931C931197B1
:100EF0008D01A991B99108959A928A926A925A9213
:100F00004A92BA93AA939A938A93D8010D911C910D
:100F100011970E94E109802F002309F443C10A952B
:100F2000E9F00A95E9F00A9599F1035009F444C0F3
:100F30000A9509F44EC00A9509F45BC00A9509F4B4
:100F40006AC00A9509F4B5C00A9509F4E0C00A958B
:100F500009F408C10A9509F40CC119C121E018C1AE
:100F60000D911C9111970E942C0A002309F415C1C0
:100F7000902F0D911C9111970E942F0A202F0D91F7
:100F80001C9111970E94480A9A9509F406C1F1CF65
:100F900004EE402E00E0502EF20124910D911C91A0
:100FA00011970E94480A01E0400E00E0501EF20135
:100FB0000491002389F7F1C00D911C9111970E94B3
:100FC0002F0A202F00918D0410918E040E94980208
:100FD000DCC00D911C9111970E94380A9801009174
:100FE0008D0410918E040E94D702002309F4CFC013
:100FF000CCC00D911C9111970E94380A9801E09184
:101000008D04F0918E040581F681E02F008111811D
:101010000E941009BAC020E00D911C9111970E9406
:10102000480A00918D0410918E040E94FC02202F2A
:101030000D911C9111970E94480AE0918D04F09146
:101040008E04058116810E94630698010D911C9102
:1010500011970E945F0AE0918D04F0918E04058142
:1010600016810E945F0698010D911C9111970E94B4
:101070005F0AE0918D04F0918E04058116810E9433
:10108000670698010D911C9111970E945F0AE091EB
:101090008D04F0918E040581F681E02F008111818D
:1010A0000E94230998010D911C9111970E945F0ADB
:1010B00074C00D911C9111970E942F0A002311F00A
:1010C00021E001C020E0E0918D04F0918E040581C3
:1010D000F681E02F24A30D911C9111970E942F0AF5
:1010E000802E0D911C9111970E942F0A902E0D9128
:1010F0001C9111970E942F0AA401602FE0918D048A
:10110000F0918E04058116810E9420063EC020E0E9
:101110000D911C9111970E94480AE0918D04F09165
:101120008E040581F681E02F24A10D911C91119769
:101130000E94480AE0918D04F0918E040581168189
:101140000E942506512E622E202F0D911C91119781
:101150000E94480A252D0D911C9111970E94480A62
:10116000262D16C000918D0410918E040E943D031F
:101170000CC000918004109181040E9435070091F9
:101180008D0410918E040E94FF0220E001C024E033
:101190000D911C9111970E94480A282F0D911C91C6
:1011A0000E94C30B89919991A991B9914990599045
:1011B00069908990999008959A938A93C8012C9880
:1011C000249A20E030E02CD0009192040093B300E8
:1011D00003EC0093B00001E00093B10007BB009165
:1011E00070000160009370008C01899199910895BD
:1011F0002A931A930A932FB70091910410919404A3
:10120000100F1093940418F40091930402C00091FD
:1012100092040093B3002FBF099119912991189559
:1012200021300FEF300710F020E03FEFE1E9F4E06C
:10123000022F0C7F0083232F032F0095018323951A
:10124000209522830895009192040095102F00911B
:10125000910408959A938A93C80108E010E00E94CF
:10126000D60B202F212B19F09C0141D002C000E0A9
:1012700010E089919991089502E004BD03E005BD55
:1012800009EF07BD02E005BB00936E00E5E9F4E05D
:1012900001E0048300E000830183028303837894E8
:1012A00008957894FA93EA932A931A930A932FB79E
:1012B000E5E9F4E0008111810F5F1F4F0083118386
:1012C00001E004832FBF099119912991E991F991C6
:1012D00018952FB7F894E5E9F4E0008111810283B5
:1012E00013830481058300E004832FBF0895F80170
:1012F0002083318320E026832783258302C0258332
:1013000020E0248320919704309198042283338332
:10131000089521E0F801F3CFF80127814091970467
:101320005091980402811381BA01601B710B0081F6
:1013300011816017710778F011E0222321F00481F8
:10134000002309F010E001E004830681002321F06E
:101350004283538306C010E0222319F40681002340
:1013600019F0112331F003C00481002311F005812D
:10137000089500E00895BA93AA939A938A93D801A6
:1013800053962C931B97822F90E004968C010E9419
:10139000D40B0D931C9318968C010E94D40B0D93C3
:1013A0001C93529700E00C9306E01A960C93199741
:1013B00000E00C9311978D0189919991A991B991B0
:1013C00008951D0140E0F8012181263009F041C057
:1013D00025814085241B2350278342E820853185C1
:1013E00023833483F9015081552391F4F8016381FB
:1013F000732F6F5F7F4F638374830AC0D0016D9139
:10140000A383B4834627E42FF0E0EE50FF4F4491CE
:10141000F80165817681038014806015710570F78D
:101420002F5F3F4F23833483442321F4A381B32FC1
:101430004C9101C041E020E0208B208531852D5F5B
:101440003F4F23833483218932892D5F3F4F248787
:101450003587042FD1010895F801078108959D0172
:10146000F801A381B4810D91A383B483D9010895B8
:101470003B2F4A2FF801A381B4812D91A383B4831C
:10148000A3811D91A383B483022FA42FB32F0895AA
:101490003B2F2A2EF80104841584418952896389DF
:1014A00070E0460F571F4D5F5F4F0416150620F47E
:1014B000D0012D93A487B587A22DB32F08950D01D8
:1014C000F8016485758501891289438950E0040F0C
:1014D000151F0E5F1F4F6017710748F4DB012C9337
:1014E00011968D010F5F1F4F048715873C93D00124
:1014F0000895BA93AA93382E022EF80124853585D3
:101500002687378721883289622D22192350208B24
:10151000732F6F5F7F4F6487758780818068E22DAE
:10152000F32F8083262FFB010082F8016089E22FD0
:10153000F72F618362E8F801218932892487358792
:101540002081222381F424852F5F3F4F2487358714
:101550000AC0D9012D91A487B5876227E62FF0E054
:10156000EE50FF4F6491F801248535850684178479
:101570002015310570F3F9016083F8012189328962
:10158000248735872081222329F424852F5F3F4F2C
:101590002487358720E02387218324E0228700ECFD
:1015A000FA010083832DA991B9910895AA939A9382
:1015B0008A93C801A22F06E110E00E94D60B202FCB
:1015C000212B21F04A2F9C0107D002C000E010E03F
:1015D00089919991A9910895BA93AA939A938A931C
:1015E000D801C901242F0E94BB09A0939B04B0938A
:1015F0009C04709A6898719A699A06E00093C200F8
:101600009093C5008093C40008ED0093C1008D0144
:1016100089919991A991B9910895BA93AA93FA934E
:10162000EA936A935A934A933A932A931A930A93A2
:101630006FB70091C600E0919B04F0919C0411816A
:10164000163009F454C0003C41F401E001830085E8
:1016500011850383148300E003C00B3D19F401E0FE
:10166000028345C02281222349F00D3D11F40BED88
:1016700003C00C3D61F500EC20E022831150F9F02D
:101680001A9571F11A9559F01A9589F523813481CB
:10169000458156812417350729F516E022C014E04C
:1016A00011831389101708F4012F2085318510E06C
:1016B000200F311F2D5F3F4F2583368313C012E06B
:1016C000118307FB3EF40F771081011759F000E0FA
:1016D00001830DC010E0A381B4811D93A383B48363
:1016E00013E01183A381B4810D93A383B4836FBFEF
:1016F0000991199129913991499159916991E991EA
:10170000F991A991B9911895BA93AA93FA93EA938A
:101710006A935A934A933A932A931A930A936FB708
:10172000E0919B04F0919C040285043049F5A48566
:10173000B5850D91A487B587003C11F00B3DA1F450
:101740001385112351F40BED11E0138724853585A2
:10175000215030402487358707C0003C11F40CED40
:1017600001C00DED10E0138726853785448555852A
:101770002417350710F415E012870093C60002C045
:1017800006E00287B4CF2197AE010E94790A088152
:101790000093C6002196089501E010E00C94480CD7
:1017A0000C94F90001E008950C94D60B9A938A9357
:1017B000C80102C00E94F30B8C010E94010D202F72
:1017C000212B71F4EDE9F4E040815181628100E068
:1017D00040305007600771F3FA016CBF1995ECCFE8
:1017E0008991999108950C94CC0B20E008D0E9F7E9
:1017F00008953BBF27913BB702D0D9F708952D93A9
:1018000001501040202F212B089502EB402E0AE1B9
:10181000502E00E0602EF201362D6BBE079116911E
:10182000F201EE5FFF4F3F4F3BBFA791B691F20130
:10183000362DEC5FFF4F3F4F3BBF4791579166916D
:10184000242F252B262B21F0FA01362FD2DF01C0C1
:10185000CCDF07E0400E00E0501E601EA201662DA6
:10186000403C5A416040B8F20895E0EAF4E000815B
:101870001181012B19F000E010E0089500E013E061
:101880000083118320E031E0F80120833183089543
:10189000FFCF0D01D801012B09F452C01297ED9131
:1018A000FC911197349708F44BC002EA14E0F80158
:1018B00050D019F0A217B30728F4FD012283338317
:1018C000F80123C0F90145D019F02A173B07D0F3DE
:1018D000408151819F01240F351FA217B30780F16A
:1018E0002A173B0741F42D913C91420F531F40832F
:1018F0005183DF010CC02DD021F024D026173707EB
:10190000F8F012962D933C931397A283B383FD01B5
:1019100020D0B1F017D06217730791F440E0F801BE
:1019200040834183F901008111814D915C91400F09
:10193000511F5C934E9302811381FD010283138337
:10194000D00108954D915C911197BD01640F751FF1
:10195000089522813381422F432B08950E94740100
:10196000C80104C00E5F1F4F0E94490CE2EAF4E078
:10197000A081B1810A2F0B2B59F4A4EAB4E02FD037
:1019800021F137D000F530D0FACF33D0E0F42CD0AD
:1019900026D0D9F7E2EAF4E00081F181E02F00815E
:1019A0001181A4EAB4E001C01FD02D913C911197A0
:1019B0002017310751F0ED91F32F119720813181DC
:1019C0002817390788F38D0107C00E94350C202F96
:1019D000212B41F600E010E0E4E00C9479010D9138
:1019E0001C911197012B0895FD01A081B1811296E0
:1019F0000895ED91F12F11970081118108171907B2
:101A000008950E947401C80102960817190758F436
:101A1000843000E0900710F484E090E08C019EDFB9
:101A2000202F212B19F400E010E03EC0F8012081A6
:101A30003181F901A081B1811497A817B90730F459
:101A400022813381D8012D933C9316C0280F391F72
:101A5000D8012D933C934281538127D04D935C93C1
:101A600040815181481B590BD8012D91BC91A22F67
:101A70004D935C9380839183D8012D913C91232BCE
:101A800059F013D02D913C91232B31F0D8010D91B9
:101A90001C910E5F1F4F02C000E010E0A2EAB4E00C
:101AA0000D931C9332968F0197CFD8012D91D901B8
:101AB0009ECF20006004C01A0026008004000000B1
:101AC00000FA00FA00FA00FAC409C409C409C409FA
:101AD000E109C2139D1F85270068890900000000E5
:00000001FF
:00000001FF
